:020000040800F2
:1000000000280020650C0008090C00080F0C0008EF
:10001000150C00081B0C0008210C00080000000053
:10002000000000000000000000000000270C000895
:10003000330C0008000000003F0C00084B0C0008C7
:10004000AD0C0008AD0C0008AD0C0008AD0C0008AC
:10005000AD0C0008AD0C0008AD0C0008AD0C00089C
:10006000AD0C0008AD0C0008AD0C0008AD0C00088C
:10007000AD0C0008AD0C0008AD0C0008AD0C00087C
:10008000AD0C0008AD0C0008AD0C0008AD0C00086C
:10009000AD0C0008AD0C0008AD0C0008AD0C00085C
:1000A000AD0C0008AD0C0008AD0C0008AD0C00084C
:1000B000AD0C0008AD0C000800000000AD0C0008FD
:1000C000AD0C00080000000000000000AD0C0008AE
:1000D00000000000AD0C0008AD0C0008000000009E
:1000E000AD0C0008AD0C0008AD0C000800000000CD
:1000F0000000000000000000000000000000000000
:0C01000000000000000000005FF808F1A3
:10010C0010B5054C237833B9044B13B10448AFF345
:10011C0000800123237010BD0C00002000000000A3
:10012C00D01A000808B5034B1BB103490348AFF3C1
:10013C00008008BD0000000010000020D01A00084C
:10014C0080B584B000AFF8600B46FB72C7F804C0F2
:10015C00FB68002B57D1FB7A782B25D1002201218B
:10016C00C74801F083F800220221C54801F07EF84F
:10017C0000220421C24801F079F800222021C04855
:10018C0001F074F800224021BD4801F06FF8002204
:10019C004FF48071BA4801F069F801224FF40071F4
:1001AC00B74801F063F868E3FB7A792B40F065837C
:1001BC0000224FF40071B34801F058F800224FF4BC
:1001CC008061B04801F052F800224FF40061AD4854
:1001DC0001F04CF800224FF48051AA4801F046F887
:1001EC0000224FF48051A64801F040F800224FF451
:1001FC000051A34801F03AF801224FF48041A04885
:10020C0001F034F839E3FB68012B57D1FB7A782BDA
:10021C0025D1012201219A4801F028F8002202215F
:10022C00974801F023F800220421954801F01EF8AC
:10023C0001222021924801F019F801224021904816
:10024C0001F014F801224FF480718D4801F00EF882
:10025C0001224FF400718A4801F008F80DE3FB7A93
:10026C00792B40F00A8301224FF40071854800F08D
:10027C00FDFF00224FF48061824800F0F7FF00225E
:10028C004FF400617F4800F0F1FF01224FF48051E0
:10029C007C4800F0EBFF01224FF48051784800F0CD
:1002AC00E5FF01224FF40051754800F0DFFF0122F9
:1002BC004FF48041724800F0D9FFDEE2FB68022B5C
:1002CC0057D1FB7A782B25D1002201216C4800F004
:1002DC00CDFF002202216A4800F0C8FF0122042150
:1002EC00674800F0C3FF00222021654800F0BEFFE4
:1002FC0000224021624800F0B9FF01224FF48071C6
:10030C005F4800F0B3FF00224FF400715C4800F02E
:10031C00ADFFB2E2FB7A792B40F0AF8200224FF4B2
:10032C000071584800F0A2FF00224FF4806155483C
:10033C0000F09CFF01224FF40061524800F096FF40
:10034C0000224FF480514F4800F090FF00224FF4F0
:10035C0080514B4800F08AFF01224FF4005148486D
:10036C0000F084FF00224FF48041454800F07EFFEE
:10037C0083E2FB68032B57D1FB7A782B25D1002223
:10038C0001213F4800F072FF002202213C4800F09E
:10039C006DFF002204213A4800F068FF0022202162
:1003AC00374800F063FF01224021354800F05EFF22
:1003BC0001224FF48071324800F058FF00224FF4B4
:1003CC0000712F4800F052FF57E2FB7A792B40F076
:1003DC00548200224FF400712A4800F047FF00229B
:1003EC004FF48061274800F041FF00224FF4006178
:1003FC00244800F03BFF00224FF48051214800F0CC
:10040C0035FF01224FF480511D4800F02FFF0122CF
:10041C004FF400511A4800F029FF00224FF480419C
:10042C00174800F023FF28E2FB68042B5BD1FB7A12
:10043C00782B29D101220121114800F017FF00224D
:10044C0002210F4800F012FF002204210C4800F09A
:10045C000DFF012220210A4800F008FF0122402153
:10046C00074800F003FF00224FF48071044800F0AD
:10047C00FDFE00224FF40071014800F0F7FEFCE194
:10048C00000C014000080140FB7A792B40F0F5810B
:10049C0001224FF40071CA4800F0E8FE00224FF42C
:1004AC008061C74800F0E2FE00224FF40061C448AE
:1004BC0000F0DCFE01224FF48051C14800F0D6FE62
:1004CC0001224FF48051BF4800F0D0FE00224FF4BF
:1004DC000051BC4800F0CAFE00224FF48041B948DC
:1004EC0000F0C4FEC9E1FB68052B57D1FB7A782BD1
:1004FC0025D100220121B34800F0B8FE01220221CF
:10050C00B04800F0B3FE00220421AE4800F0AEFE6D
:10051C0000222021AB4800F0A9FE01224021A9486D
:10052C0000F0A4FE00224FF48071A64800F09EFE5D
:10053C0000224FF40071A34800F098FE9DE1FB7A75
:10054C00792B40F09A8100224FF400719C4800F006
:10055C008DFE01224FF48061994800F087FE002245
:10056C004FF40061964800F081FE00224FF4805158
:10057C00934800F07BFE01224FF48051914800F02B
:10058C0075FE00224FF400518E4800F06FFE0022E1
:10059C004FF480418B4800F069FE6EE1FB68062B3E
:1005AC0057D1FB7A782B25D100220121854800F008
:1005BC005DFE01220221834800F058FE0022042136
:1005CC00804800F053FE002220217E4800F04EFEB1
:1005DC00002240217B4800F049FE00224FF480713C
:1005EC00784800F043FE00224FF40071754800F08B
:1005FC003DFE42E1FB7A792B40F03F8100224FF423
:10060C0000716F4800F032FE01224FF480616C489B
:10061C0000F02CFE00224FF40061694800F026FE29
:10062C0000224FF48051664800F020FE00224FF467
:10063C008051644800F01AFE00224FF400516148CA
:10064C0000F014FE00224FF480415E4800F00EFED4
:10065C0013E1FB68072B57D1FB7A782B25D10022AD
:10066C000121584800F002FE00220221554800F0FA
:10067C00FDFD00220421534800F0F8FD0122202149
:10068C00504800F0F3FD012240214E4800F0EEFDF1
:10069C0001224FF480714B4800F0E8FD01224FF429
:1006AC000071484800F0E2FDE7E0FB7A792B40F05E
:1006BC00E48000224FF40071414800F0D7FD002285
:1006CC004FF480613E4800F0D1FD00224FF40061F0
:1006DC003B4800F0CBFD01224FF48051384800F02C
:1006EC00C5FD01224FF48051364800F0BFFD0122B8
:1006FC004FF40051334800F0B9FD01224FF4804112
:10070C00304800F0B3FDB8E0FB68082B5CD1FB7AF5
:10071C00782B25D1002201212A4800F0A7FD0022C8
:10072C000221284800F0A2FD00220421254800F0F7
:10073C009DFD00222021234800F098FD002240213D
:10074C00204800F093FD00224FF480711D4800F00A
:10075C008DFD00224FF400711A4800F087FD8CE0EB
:10076C00FB7A792B40F0898000224FF400711448F9
:10077C0000F07CFD00224FF48061114800F076FD02
:10078C0000224FF400610E4800F070FD00224FF47F
:10079C0080510B4800F06AFD00224FF4805109484B
:1007AC0000F064FD00224FF40051064800F05EFD9D
:1007BC0000224FF48041034800F058FD5DE000BF7B
:1007CC0000080140000C0140FB68092B55D1FB7A55
:1007DC00782B25D1002201212A4800F047FD002268
:1007EC000221284800F042FD00220421254800F097
:1007FC003DFD00222021234800F038FD012240213C
:10080C00204800F033FD00224FF480711D4800F0A9
:10081C002DFD00224FF400711A4800F027FD2CE04A
:10082C00FB7A792B29D100224FF40071164800F085
:10083C001DFD00224FF48061134800F017FD0022CB
:10084C004FF40061104800F011FD00224FF480516C
:10085C000D4800F00BFD01224FF48051094800F0C7
:10086C0005FD00224FF40051064800F0FFFC002269
:10087C004FF48041034800F0F9FC00BF1037BD462F
:10088C0080BD00BF000C01400008014080B586B05F
:10089C0000AF07F120037B6100F004FA00F0E4F8EC
:1008AC0000F01EF945F252233B826C4A07F1080313
:1008BC0092E8030083E80300694A3B4692E8030090
:1008CC0083E803003B7C592B33D07B7C522B30D1FB
:1008DC00BB6807F11402944678211846FFF730FCE8
:1008EC00BA683B68134407F1140294467921184600
:1008FC00FFF726FCBB68013BBB60BB68002B03D138
:10090C000423BB6059233B7400222021554800F07E
:10091C00ADFC00220221534800F0A8FC0122082162
:10092C00504800F0A3FC012210214E4800F09EFC20
:10093C008FE03B7C592B29D17B7C522B26D13B68F9
:10094C0007F11402944678211846FFF7F9FB3B682F
:10095C0007F11402944679211846FFF7F1FB3B6826
:10096C00013B3B603B68002B05D102233B605223CB
:10097C003B7447237B74002208213A4800F076FC34
:10098C0001220421374800F071FC62E03B7C522BC1
:10099C0033D17B7C472B30D1FA687B68134407F149
:1009AC001402944678211846FFF7CAFBFB6807F13E
:1009BC001402944679211846FFF7C2FBFB68013BF1
:1009CC00FB60FB68002B03D10423FB6059237B7471
:1009DC0000220421234800F049FC01220221214875
:1009EC0000F044FC002210211E4800F03FFC0122C4
:1009FC0040211C4800F03AFC2BE03B7C522B28D1C8
:100A0C007B7C592B25D17B6807F114029446782105
:100A1C001846FFF795FB7B6807F114029446792181
:100A2C001846FFF78DFB7B68013B7B607B68002BD6
:100A3C0005D102237B6052237B7447233B74002235
:100A4C004021084800F012FC01222021054800F04A
:100A5C000DFC4FF47A7000F087F933E7E81A0008C0
:100A6C00F01A00080008014080B590B000AF07F103
:100A7C00180328220021184601F01CF83B1D002207
:100A8C001A605A609A60DA601A610223BB61012312
:100A9C00BB621023FB6200237B6307F1180318462B
:100AAC0000F0FCFB0346002B01D000F06FF80F2385
:100ABC007B600023BB600023FB6000233B610023B1
:100ACC007B613B1D0021184600F068FE0346002B9D
:100ADC0001D000F05BF800BF4037BD4680BD000080
:100AEC0080B586B000AF07F1080300221A605A6087
:100AFC009A60DA60224B9B69214A43F004039361AC
:100B0C001F4B9B6903F004037B607B681C4B9B6948
:100B1C001B4A43F008039361194B9B6903F00803CC
:100B2C003B603B68002241F67E61164800F09EFB5C
:100B3C00002247F26731144800F098FB41F67E63BF
:100B4C00BB600123FB6000233B6102237B6107F147
:100B5C00080319460B4800F00FFA47F26733BB60E5
:100B6C000123FB6000233B6102237B6107F1080337
:100B7C001946054800F000FA00BF1837BD4680BD85
:100B8C000010024000080140000C014080B400AF8E
:100B9C0072B600BFFEE7000080B485B000AF154B05
:100BAC009B69144A43F001039361124B9B6903F058
:100BBC000103BB60BB680F4BDB690E4A43F08053EB
:100BCC00D3610C4BDB6903F080537B607B680A4B71
:100BDC005B68FB60FB6823F0E063FB60FB6843F041
:100BEC008063FB60044AFB68536000BF1437BD464A
:100BFC0080BC7047001002400000014080B400AF80
:100C0C00FEE780B400AFFEE780B400AFFEE780B42F
:100C1C0000AFFEE780B400AFFEE780B400AF00BFCA
:100C2C00BD4680BC704780B400AF00BFBD4680BCE1
:100C3C00704780B400AF00BFBD4680BC704780B524
:100C4C0000AF00F075F800BF80BD80B400AF00BFEE
:100C5C00BD4680BC704700000C480D490D4A00236E
:100C6C0002E0D458C4500433C4188C42F9D30A4A55
:100C7C000A4C002301E013600432A242FBD3FFF7BD
:100C8C00E4FF00F0F3FEFFF701FE704700000020C8
:100C9C000C000020201B00080C0000202C00002061
:100CAC00FEE7000080B500AF084B1B68074A43F015
:100CBC0010031360032000F02BF90F2000F008F84C
:100CCC00FFF76AFF0023184680BD00BF00200240DA
:100CDC0080B582B000AF7860124B1A68124B1B784B
:100CEC0019464FF47A73B3FBF1F3B2FBF3F31846E6
:100CFC0000F035F90346002B01D001230EE07B6890
:100D0C000F2B0AD8002279684FF0FF3000F00BF956
:100D1C00064A7B681360002300E00123184608375D
:100D2C00BD4680BD0000002008000020040000200B
:100D3C0080B400AF054B1B781A46054B1B68134457
:100D4C00034A136000BFBD4680BC704708000020FA
:100D5C002800002080B400AF024B1B681846BD462B
:100D6C0080BC70472800002080B584B000AF78604C
:100D7C00FFF7F0FFB8607B68FB60FB68B3F1FF3FE7
:100D8C0005D00A4B1B781A46FB681344FB6000BF66
:100D9C00FFF7E0FF0246BB68D31AFA689A42F7D80D
:100DAC0000BF00BF1037BD4680BD00BF080000204B
:100DBC0080B485B000AF78607B6803F00703FB60FC
:100DCC000C4BDB68BB60BA684FF6FF031340BB608B
:100DDC00FB681A02BB68134343F0BF6343F4003350
:100DEC00BB60044ABB68D36000BF1437BD4680BCEF
:100DFC00704700BF00ED00E080B400AF044BDB682F
:100E0C001B0A03F007031846BD4680BC704700BFA1
:100E1C0000ED00E080B483B000AF03463960FB7195
:100E2C0097F90730002B0ADB3B68DAB20C4997F9CB
:100E3C0007301201D2B20B4483F800230AE03B685E
:100E4C00DAB20849FB7903F00F03043B1201D2B26A
:100E5C000B441A7600BF0C37BD4680BC704700BFF0
:100E6C0000E100E000ED00E080B489B000AFF86074
:100E7C00B9607A60FB6803F00703FB61FB69C3F19F
:100E8C000703042B28BF0423BB61FB690433062B27
:100E9C0002D9FB69033B00E000237B614FF0FF327A
:100EAC00BB6902FA03F3DA43BB681A407B699A40C8
:100EBC004FF0FF317B6901FA03F3D9437B680B4098
:100ECC00134318462437BD4680BC704780B582B0AA
:100EDC0000AF78607B68013BB3F1807F01D30123C5
:100EEC000FE00A4A7B68013B53600F214FF0FF3043
:100EFC00FFF790FF054B00229A60044B07221A6003
:100F0C00002318460837BD4680BD00BF10E000E046
:100F1C0080B582B000AF78607868FFF749FF00BFFA
:100F2C000837BD4680BD80B586B000AF0346B960BA
:100F3C007A60FB7300237B61FFF75EFF78617A6850
:100F4C00B9687869FFF790FF024697F90F301146A0
:100F5C001846FFF75FFF00BF1837BD4680BD80B550
:100F6C0082B000AF78607868FFF7B0FF0346184690
:100F7C000837BD4680BD000080B48BB000AF7860F0
:100F8C00396000237B6200233B6248E101227B6ACB
:100F9C0002FA03F3FB613B681B68FA691340BB61FF
:100FAC00BA69FB699A4240F037813B685B68A34A97
:100FBC0093425ED0A14A934275D8A14A934258D02D
:100FCC009F4A93426FD89F4A934252D09D4A934274
:100FDC0069D89D4A93424CD09B4A934263D89B4A12
:100FEC00934246D0994A93425DD8122B2AD8122BA1
:100FFC0059D801A252F823F07F10000859100008AC
:10100C006B100008AD100008B3100008B3100008F6
:10101C00B3100008B3100008B3100008B310000898
:10102C00B3100008B3100008B3100008B310000888
:10103C00B3100008B3100008B310000861100008CA
:10104C0075100008824A934213D02CE03B68DB6891
:10105C003B6229E03B68DB6804333B6224E03B687D
:10106C00DB6808333B621FE03B68DB680C333B6298
:10107C001AE03B689B68002B02D104233B6213E00F
:10108C003B689B68012B05D108233B627B68FA699E
:10109C001A6109E008233B627B68FA695A6103E034
:1010AC0000233B6200E000BFBB69FF2B01D87B68CB
:1010BC0001E07B6804337B61BB69FF2B02D87B6A40
:1010CC009B0002E07B6A083B9B003B617B691A68D2
:1010DC000F213B6901FA03F3DB431A40396A3B6980
:1010EC0001FA03F31A437B691A603B685B6803F0EF
:1010FC008053002B00F09080564B9B69554A43F06F
:10110C0001039361534B9B6903F00103BB60BB6804
:10111C00514A7B6A9B08023352F82330FB607B6A8E
:10112C0003F003039B000F2202FA03F3DB43FA687C
:10113C001340FB607B68494A93420DD07B68484A58
:10114C00934207D07B68474A934201D1022304E0C3
:10115C00032302E0012300E000237A6A02F0030279
:10116C0092009340FA681343FB603B497B6A9B08EF
:10117C000233FA6841F823203B685B6803F4803340
:10118C00002B06D0384B1A683749BB6913430B60E8
:10119C0006E0354B1A68BB69DB43334913400B60DF
:1011AC003B685B6803F40033002B06D02E4B5A6867
:1011BC002D49BB6913434B6006E02B4B5A68BB6946
:1011CC00DB43294913404B603B685B6803F4801395
:1011DC00002B06D0244B9A682349BB6913438B60C0
:1011EC0006E0214B9A68BB69DB431F4913408B60B7
:1011FC003B685B6803F40013002B06D01A4BDA68CB
:10120C001949BB691343CB6006E0174BDA68BB691D
:10121C00DB4315491340CB607B6A01337B623B682F
:10122C001A687B6A22FA03F3002B7FF4AFAE00BF7F
:10123C0000BF2C37BD4680BC704700BF0000321089
:10124C0000003110000022100000211000001210CC
:10125C000000111000100240000001400008014085
:10126C00000C0140001001400004014080B483B028
:10127C0000AF78600B467B8013467B707B78002B2D
:10128C0003D07A887B681A6103E07B881A047B6838
:10129C001A6100BF0C37BD4680BC704780B586B064
:1012AC0000AF78607B68002B01D101236CE27B6876
:1012BC001B6803F00103002B00F08780924B5B68E6
:1012CC0003F00C03042B0CD08F4B5B6803F00C0366
:1012DC00082B12D18C4B5B6803F48033B3F5803F41
:1012EC000BD1894B1B6803F40033002B6CD07B684B
:1012FC005B68002B68D1012346E27B685B68B3F521
:10130C00803F06D1804B1B687F4A43F480331360C7
:10131C002EE07B685B68002B0CD17B4B1B687A4AF8
:10132C0023F480331360784B1B68774A23F48023B3
:10133C0013601DE07B685B68B3F5A02F0CD1724B7A
:10134C001B68714A43F4802313606F4B1B686E4A11
:10135C0043F4803313600BE06B4B1B686A4A23F435
:10136C0080331360684B1B68674A23F48023136037
:10137C007B685B68002B13D0FFF7ECFC386108E04E
:10138C00FFF7E8FC02463B69D31A642B01D903230F
:10139C00FAE15D4B1B6803F40033002BF0D014E032
:1013AC00FFF7D8FC386108E0FFF7D4FC02463B6934
:1013BC00D31A642B01D90323E6E1534B1B6803F4C6
:1013CC000033002BF0D100E000BF7B681B6803F0FA
:1013DC000203002B63D04C4B5B6803F00C03002B17
:1013EC000BD0494B5B6803F00C03082B1CD1464B0C
:1013FC005B6803F48033002B16D1434B1B6803F05E
:10140C000203002B05D07B681B69012B01D0012343
:10141C00BAE13D4B1B6823F0F8027B685B69DB008B
:10142C00394913430B603AE07B681B69002B20D0D1
:10143C00364B01221A60FFF78DFC386108E0FFF78C
:10144C0089FC02463B69D31A022B01D903239BE189
:10145C002D4B1B6803F00203002BF0D02A4B1B68AA
:10146C0023F0F8027B685B69DB00274913430B60B0
:10147C0015E0264B00221A60FFF76CFC386108E07F
:10148C00FFF768FC02463B69D31A022B01D90323F0
:10149C007AE11D4B1B6803F00203002BF0D17B6833
:1014AC001B6803F00803002B3AD07B689B69002B68
:1014BC0019D0174B01221A60FFF74CFC386108E079
:1014CC00FFF748FC02463B69D31A022B01D90323D0
:1014DC005AE10D4B5B6A03F00203002BF0D00120A4
:1014EC0000F0A6FA1CE00A4B00221A60FFF732FC4F
:1014FC0038610FE0FFF72EFC02463B69D31A022B32
:10150C0008D9032340E100BF001002400000424212
:10151C00800442429E4B5B6A03F00203002BE9D12C
:10152C007B681B6803F00403002B00F0A6800023EB
:10153C00FB75974BDB6903F08053002B0DD1944B5B
:10154C00DB69934A43F08053D361914BDB6903F021
:10155C008053BB60BB680123FB758E4B1B6803F487
:10156C008073002B18D18B4B1B688A4A43F4807311
:10157C001360FFF7EFFB386108E0FFF7EBFB024667
:10158C003B69D31A642B01D90323FDE0814B1B6803
:10159C0003F48073002BF0D07B68DB68012B06D141
:1015AC007B4B1B6A7A4A43F0010313622DE07B6884
:1015BC00DB68002B0CD1764B1B6A754A23F00103B8
:1015CC001362734B1B6A724A23F0040313621CE010
:1015DC007B68DB68052B0CD16D4B1B6A6C4A43F0A6
:1015EC00040313626A4B1B6A694A43F001031362DA
:1015FC000BE0674B1B6A664A23F001031362644BD2
:10160C001B6A634A23F0040313627B68DB68002BBC
:10161C0015D0FFF79FFB38610AE0FFF79BFB0246F2
:10162C003B69D31A41F28832934201D90323ABE0D0
:10163C00574B1B6A03F00203002BEED014E0FFF7AC
:10164C0089FB38610AE0FFF785FB02463B69D31A38
:10165C0041F28832934201D9032395E04C4B1B6A2B
:10166C0003F00203002BEED1FB7D012B05D1484B7F
:10167C00DB69474A23F08053D3617B68DB69002B1D
:10168C0000F08180424B5B6803F00C03082B61D0A7
:10169C007B68DB69022B46D13F4B00221A60FFF7B7
:1016AC0059FB386108E0FFF755FB02463B69D31A3A
:1016BC00022B01D9032367E0354B1B6803F0007341
:1016CC00002BF0D17B681B6AB3F5803F08D1304BFF
:1016DC005B6823F400327B689B682D4913434B6095
:1016EC002B4B5B6823F474127B68196A7B685B6A0A
:1016FC000B43274913434B60274B01221A60FFF71A
:10170C0029FB386108E0FFF725FB02463B69D31A39
:10171C00022B01D9032337E01D4B1B6803F0007328
:10172C00002BF0D02FE01C4B00221A60FFF712FBAD
:10173C00386108E0FFF70EFB02463B69D31A022B17
:10174C0001D9032320E0124B1B6803F00073002B1C
:10175C00F0D118E07B68DB69012B01D1012313E088
:10176C000B4B5B68FB60FB6803F480327B681B6A85
:10177C009A4206D1FB6803F470127B685B6A9A424A
:10178C0001D0012300E0002318461837BD4680BD68
:10179C0000100240007000406000424280B584B0EE
:1017AC0000AF786039607B68002B01D10123D0E059
:1017BC006A4B1B6803F007033A689A4210D9674BCF
:1017CC001B6823F0070265493B6813430B60634BAE
:1017DC001B6803F007033A689A4201D00123B8E072
:1017EC007B681B6803F00203002B20D07B681B680E
:1017FC0003F00403002B05D0594B5B68584A43F4A3
:10180C00E06353607B681B6803F00803002B05D072
:10181C00534B5B68524A43F460535360504B5B68C4
:10182C0023F0F0027B689B684D4913434B607B6847
:10183C001B6803F00103002B40D07B685B68012B15
:10184C0007D1474B1B6803F40033002B15D1012340
:10185C007FE07B685B68022B07D1414B1B6803F070
:10186C000073002B09D1012373E03D4B1B6803F07F
:10187C000203002B01D101236BE0394B5B6823F091
:10188C0003027B685B68364913434B60FFF762FACF
:10189C00F8600AE0FFF75EFA0246FB68D31A41F2E1
:1018AC008832934201D9032353E02D4B5B6803F03C
:1018BC000C027B685B689B009A42EBD1274B1B6840
:1018CC0003F007033A689A4210D2244B1B6823F0AA
:1018DC00070222493B6813430B60204B1B6803F043
:1018EC0007033A689A4201D0012332E07B681B68F7
:1018FC0003F00403002B08D0194B5B6823F4E0625F
:10190C007B68DB68164913434B607B681B6803F0EC
:10191C000803002B09D0124B5B6823F460527B68E0
:10192C001B69DB000E4913434B6000F021F80246A3
:10193C000B4B5B681B0903F00F030A49CB5C22FAC3
:10194C0003F3094A1360094B1B681846FFF7C0F9EB
:10195C00002318461037BD4680BD00BF0020024052
:10196C0000100240081B00080000002004000020AA
:10197C0090B48AB000AF2A4B3C1D0FCB84E80F000B
:10198C0040F201233B800023FB610023BB61002359
:10199C007B6200237B6100233B62224B5B68FB6113
:1019AC00FB6903F00C03042B02D0082B03D02DE0B1
:1019BC001D4B3B622DE0FB699B0C03F00F0307F101
:1019CC002802134413F8243C7B61FB6903F4803335
:1019DC00002B13D0134B5B685B0C03F0010307F176
:1019EC002802134413F8283CBB617B690E4A02FBA6
:1019FC0003F2BB69B2FBF3F37B6204E07B690B4A35
:101A0C0002FB03F37B627B6A3B6202E0064B3B62A8
:101A1C0000BF3B6A18462837BD4690BC704700BFD4
:101A2C00F81A00080010024000127A0000093D006C
:101A3C0080B485B000AF78600A4B1B680A4AA2FBE1
:101A4C0003235B0A7A6802FB03F3FB6000BFFB68AD
:101A5C005A1EFA60002BF9D100BF00BF1437BD46E7
:101A6C0080BC704700000020D34D621070B500267A
:101A7C000C4D0D4C641BA410A64209D100F022F8A9
:101A8C0000260A4D0A4C641BA410A64205D170BD59
:101A9C0055F8043B98470136EEE755F8043B984758
:101AAC000136F2E7181B0008181B0008181B000869
:101ABC001C1B000803460244934200D1704703F8F4
:101ACC00011BF9E7F8B500BFF8BC08BC9E4670478F
:0C1ADC00F8B500BFF8BC08BC9E4670477F
:101AE80004000000040000000200000002000000E2
:101AF80002030405060708090A0B0C0D0E0F101047
:101B080000000000000000000102030406070809A5
:041B1800310100088F
:041B1C000D010008AF
:0C1B20000024F400100000000100000090
:0400000508000C657E
:00000001FF
